:020000040800F2
:100000000000022071150008C1060008C3060008A0
:10001000C5060008C7060008C90600080000000061
:10002000000000000000000000000000CB060008F7
:10003000CD06000800000000CF060008D106000829
:10004000C1150008C1150008C1150008C115000838
:10005000C1150008C1150008C1150008C115000828
:10006000C1150008C1150008C1150008C115000818
:10007000C1150008C1150008C1150008C115000808
:10008000C1150008C1150008C1150008C1150008F8
:10009000C1150008C1150008C1150008C1150008E8
:1000A000C1150008C1150008C1150008C1150008D8
:1000B000C1150008C1150008C1150008C1150008C8
:1000C000C1150008C1150008C1150008C1150008B8
:1000D000C1150008C1150008C1150008C1150008A8
:1000E000C1150008C1150008C1150008C115000898
:1000F000C1150008C1150008C1150008C115000888
:10010000C1150008C1150008C1150008C115000877
:10011000C1150008C1150008C1150008C115000867
:10012000C1150008C1150008C1150008C115000857
:10013000C11500080000000000000000C115000803
:10014000C1150008C1150008C1150008C115000837
:10015000C1150008C1150008C1150008C115000827
:10016000C1150008C1150008C1150008C115000817
:10017000C1150008C1150008C115000800000000E5
:1001800000000000C1150008000000000000000091
:10019000C11500080000000000000000C1150008A3
:1001A000000000000000000000000000C115000871
:1001B000C1150008C1150008C1150008C1150008C7
:0401C000C11500085D
:1001C40010B5054C237833B9044B13B10448AFF38D
:1001D40000800123237010BD0C00002000000000EB
:1001E4001C16000808B5034B1BB103490348AFF3C1
:1001F400008008BD00000000100000201C1600084C
:1002040053B94AB9002908BF00281CBF4FF0FF3179
:100214004FF0FF3000F06EB9ADF1080C6DE904CE7B
:1002240000F006F8DDF804E0DDE9022304B07047CD
:100234002DE9F047089D04468C46002B40F083804E
:100244008A42174647D9B2FA82F242B1C2F120007B
:1002540024FA00F09140974040EA010C94404FEAA0
:100264001748230CBCFBF8F61FFA87FE08FB16C1DF
:1002740043EA014306FB0EF1994209D9FB1806F142
:10028400FF3080F01981994240F21681023E3B44CE
:100294005B1AA4B2B3FBF8F008FB103344EA03443E
:1002A40000FB0EFEA64509D93C1900F1FF3380F08E
:1002B4000581A64540F2028102383C4440EA0640EA
:1002C400A4EB0E0400261DB1D4400023C5E900436D
:1002D4003146BDE8F08702B9FFDEB2FA82F2002AA5
:1002E40050D1CB1B4FEA174E1FFA87F80126B3FBF8
:1002F400FEFC210C0EFB1C3341EA034108FB0CF30A
:100304008B4207D979180CF1FF3002D28B4200F2EC
:10031400E9808446C91AA3B2B1FBFEF00EFB1011AA
:1003240043EA014408FB00F8A04507D93C1900F151
:10033400FF3302D2A04500F2D9801846A4EB08048A
:1003440040EA0C40BFE78B4209D9002D00F0B18090
:100354000026C5E9000130463146BDE8F087B3FA0E
:1003640083F6002E4AD18B4202D3824200F2B88037
:10037400841A61EB030101208C46002DA8D0C5E945
:10038400004CA5E7C2F1200320FA03F6974001FAD6
:1003940002F04FEA174ED9403043030CB1FBFEF68E
:1003A4001FFA87F80EFB161143EA014306FB08F116
:1003B400994204FA02F409D9FB1806F1FF3C80F0D3
:1003C4008D80994240F28A80023E3B445B1A81B29E
:1003D400B3FBFEF00EFB103341EA034100FB08F3CC
:1003E4008B4207D9791800F1FF3C73D28B4271D943
:1003F40002383944CB1A40EA064678E7C6F1200CA5
:1004040003FA06F422FA0CF31C4320FA0CF701FA5F
:1004140006F34FEA144E21FA0CF11F433B0CB1FBD7
:10042400FEF91FFA84F80EFB191143EA014109FB96
:1004340008FA8A4502FA06F200FA06F308D96118A6
:1004440009F1FF3048D28A4546D9A9F1020921446D
:10045400A1EB0A01BFB2B1FBFEF00EFB101147EA9B
:10046400014700FB08F8B84507D9E71900F1FF3147
:100474002ED2B8452CD90238274440EA0940A7EBCC
:100484000807A0FB02894F45C64649461AD317D030
:100494005DB1B3EB0E0267EB010707FA0CFCF24007
:1004A4004CEA0202F740C5E9002700263146BDE8C0
:1004B400F0872E4628460BE70646E9E61846FDE691
:1004C4004345E5D2B8EB020E69EB04010138DFE7DE
:1004D4000846D2E760468DE78146B9E7664675E788
:1004E40030464AE7ACF1020C394413E702383C4485
:1004F40024E700BF704700BF30B58BB000240594DB
:1005040006940794089409940194224B1A6B42F0C0
:1005140004021A631A6B02F004020192019A029413
:100524001A6B42F080021A631A6B02F08002029284
:10053400029A03941A6B42F001021A631A6B02F0D6
:1005440001020392039A04941A6B42F002021A63A2
:100554001B6B03F002030493049B0F4D22462021DE
:10056400284600F02DFF4FF4005305930B4B0693E0
:10057400079405A90A4800F043FE202305930123AC
:1005840006930794089405A9284600F039FE0BB099
:1005940030BD00BF003802400000024000002110BE
:1005A4000008024072B6FEE708B50A480A4B036029
:1005B4004FF4E133436000238360C36003610C2282
:1005C40042618361C36100F005FA00B908BDFFF719
:1005D400E9FF00BF280000200044004000B595B0AA
:1005E4003422002107A801F00FF80023029303939B
:1005F40004930593069300931F4A116C41F08051B4
:100604001164126C02F080520092009A01931B490B
:100614000A6822F4404242F480420A600A6802F402
:1006240040420192019A0222079201210A9110216B
:100634000B910D920E930F914FF4A8731093042312
:1006440011931292139207A800F0F6FB80B90F23BE
:10065400029302210391002304934FF480520592E4
:10066400069302A800F056FA20B915B05DF804FB11
:10067400FFF798FFFFF796FF003802400070004034
:1006840000B585B000F024FFFFF7A8FFFFF734FFA3
:10069400FFF78AFF074A01AB07CA03C31A800A237C
:1006A4001A4601A9044800F0C4F94FF47A7000F026
:1006B4003BFFEFE73416000828000020FEE7FEE7C2
:1006C400FEE7FEE7FEE770477047704708B500F0A5
:1006D40019FF08BD00B583B0002100910C4B5A6C82
:1006E40042F480425A645A6C02F480420092009AA6
:1006F40001911A6C42F080521A641B6C03F080530F
:100704000193019B072000F061FE03B05DF804FB38
:100714000038024000B589B0002303930493059385
:10072400069307930268154B9A4202D009B05DF80C
:1007340004FB0022019203F5FA33196C41F40031F1
:100744001964196C01F40031019101990292196B39
:1007540041F0010119631B6B03F001030293029B37
:100764000C23039302230493059203230693072384
:10077400079303A9024800F043FDD7E70044004073
:100784000000024070B504460268136923F4405324
:10079400C1680B43136183680269134342691343BD
:1007A400C2691A430168CB6823F4164323F00C038F
:1007B4001343CB600268536923F4407381690B438C
:1007C4005361C369B3F5004F36D00368654A934259
:1007D40000F09A8002F58062934200F0958000F068
:1007E4004FFA0026051846EB06012D1846EB0101C9
:1007F400CB0043EA5573EA001546194663689A002C
:100804009B0F281846EB0101FFF7FAFC564DA5FB98
:1008140000325109642303FB11031B013233A5FB8E
:1008240003235B0903F0F00202EB011203F00F0350
:10083400216813448B6093E003684A4A934233D09F
:1008440002F5806293422FD000F01AFA00260518B0
:1008540046EB06012D1846EB0101CB0043EA557324
:10086400EA001546194662683346921846EB0303BC
:10087400281846EB0101FFF7C3FC3B4DA5FB0032F2
:100884005109642303FB1103DB003233A5FB03236B
:100894005B095A0002F4F87202EB011203F0070339
:1008A400216813448B605BE000F0FAF90026051818
:1008B40046EB06012D1846EB0101CB0043EA5573C4
:1008C400EA001546194662683346921846EB03035C
:1008D400281846EB0101FFF793FC234DA5FB0032DA
:1008E4005109642303FB1103DB003233A5FB03230B
:1008F4005B095A0002F4F87202EB011203F00703D9
:10090400216813448B602BE000F0CAF90026051817
:1009140046EB06012D1846EB0101CB0043EA557363
:10092400EA001546194663689A009B0F281846EB9F
:100934000101FFF765FC0C4DA5FB0032510964234E
:1009440003FB11031B013233A5FB03235B0903F0F3
:10095400F00202EB011203F00F03216813448B60D1
:1009640070BD00BF001001401F85EB512DE9F84315
:1009740005460F4616469946DDF820802C68246803
:1009840037EA04030CBF01240024B4421FD1B8F198
:10099400FF3FF3D0B8F1000F05D000F0BFFDA0EB8E
:1009A40009004045EAD92A68D36823F4D073D36098
:1009B4002A68536923F001035361202385F83930F1
:1009C40085F83A30002385F83830032000E0002011
:1009D400BDE8F88358B310B5044690F839300BB32A
:1009E400242384F839302268D36823F40053D36075
:1009F4002046FFF7C7FE2268136923F4904313616E
:100A04002268536923F02A0353612268D36843F4AC
:100A14000053D3600020E063202384F8393084F845
:100A24003A3010BD80F83830FFF774FED8E7012063
:100A340070472DE9F04383B01E4690F83930DBB29D
:100A4400202B59D104460D469046002958D0002A3F
:100A540058D090F83830012B56D0012380F8383024
:100A64004FF00009C0F83C90212380F8393000F0A1
:100A740055FD0746A4F82480A4F8268084F838900D
:100A840017E000963B46002280212046FFF76EFFC8
:100A940000283BD12B882268C3F3080353602369E1
:100AA4000BB9023505E0013503E015F8012B236885
:100AB4005A60E38C9BB29BB1E28C92B2013A92B23F
:100AC400E284A368B3F5805FDBD000963B46002246
:100AD40080212046FFF74AFF0028E6D003200CE0DF
:100AE40000963B46002240212046FFF73FFF78B99D
:100AF400202384F8393000E0022003B0BDE8F083FD
:100B04000120FAE70120F8E70220F6E70320F4E7E2
:100B14000320F2E7002800F09B8070B50D460446E0
:100B24004F4B1B6803F00F038B4208D2CBB24C4AE5
:100B34001370136803F00F038B4240F08B8023681B
:100B440013F0020F17D013F0040F04D0454A936832
:100B540043F4E0539360236813F0080F04D0414A30
:100B6400936843F4604393603E4A936823F0F00330
:100B7400A1680B439360236813F0010F32D06368BC
:100B8400012B21D09A1E012A25D9364A126812F067
:100B9400020F61D033498A6822F0030213438B6049
:100BA40000F0BCFC06462F4B9B6803F00C03626804
:100BB400B3EB820F16D000F0B1FC801B41F28833F6
:100BC4009842F0D9032042E0264A126812F4003F0A
:100BD400E0D101203BE0234A126812F0007FD9D112
:100BE400012034E01E4B1B6803F00F03AB4207D90E
:100BF400EAB21B4B1A701B6803F00F03AB422DD1F2
:100C0400236813F0040F06D0164A936823F4E053C4
:100C1400E1680B439360236813F0080F07D0114A6F
:100C2400936823F46043216943EAC103936000F0AD
:100C340047F80C4B9B68C3F303130B4AD35CD840AF
:100C44000A4B18600A4B186800F01CFC002070BDA9
:100C5400012070470120FAE70120F8E70120F6E7B8
:100C6400003C024000380240401600080800002002
:100C740004000020014B1868704700BF08000020E2
:100C840008B5FFF7F7FF044B9B68C3F38223034ABD
:100C9400D35CD84008BD00BF00380240501600089D
:100CA40008B5FFF7E7FF044B9B68C3F34233034ADD
:100CB400D35CD84008BD00BF00380240501600087D
:100CC4002DE9F843594B9B6803F00C03082B08D01B
:100CD4000C2B5BD0042B02D05548BDE8F883554853
:100CE400FBE7524B5A6802F03F025B6813F4800F33
:100CF4002BD04E4B5B68C3F3881358010021C01AF4
:100D040061F100018C0144EA90648501B5EB0008AF
:100D140064EB01094FEAC90141EA58714FEAC8007E
:100D2400C01841F100014B0243EAD053440220466B
:100D340019460023FFF764FA3C4B5B68C3F3014395
:100D440001335B00B0FBF3F0C7E7384B5B68C3F3D8
:100D5400881358010021C01A61F100018C0144EA92
:100D6400906485012E1A64EB0107F90041EA56717B
:100D7400F000C01841F100018B0243EA9053840251
:100D8400204619460023FFF73BFAD5E7274B5A685C
:100D940002F03F025B6813F4800F26D0234B5B689C
:100DA400C3F3881358010021C01A61F100018E01B8
:100DB40046EA906687013C1A66EB0105E90041EAC0
:100DC4005471E000C01841F100014B0243EAD053D2
:100DD4004402204619460023FFF712FA134B5B68BE
:100DE400C3F30273B0FBF3F077E7104B5B68C3F314
:100DF40088135C010025E41A65F10005AE0146EA9A
:100E04009466A701381B66EB0501CC0044EA5074D4
:100E1400C500E81844F100018B0243EA90538402B0
:100E2400204619460023FFF7EBF9D7E700380240C4
:100E34000024F40000127A0070B582B004460368FE
:100E440013F0010F41D0A64B9B6803F00C03042B55
:100E540032D0A34B9B6803F00C03082B27D0A04B84
:100E64009B6803F00C030C2B59D06368B3F5803FE7
:100E74005BD0B3F5A02F5ED0994B1A6822F4803270
:100E84001A601A6822F480221A606368002B5CD00E
:100E940000F044FB0546924B1B6813F4003F14D149
:100EA40000F03CFB401B6428F5D903209FE18C4BE8
:100EB4005B6813F4800FD2D0894B1B6813F4003F96
:100EC40003D06368002B00F08D81236813F0020FB8
:100ED40060D0834B9B6813F00C0F4AD0804B9B6807
:100EE40003F00C03082B3FD07D4B9B6803F00C03ED
:100EF4000C2B68D0E368002B74D07A4B01221A6063
:100F040000F00CFB0546764B1B6813F0020F60D112
:100F140000F004FB401B0228F5D9032067E1704B65
:100F24005B6813F4800FA0D0C6E76D4A136843F4DE
:100F340080331360A9E76A4B1A6842F480221A606E
:100F44001A6842F480321A609FE700F0E7FA054617
:100F5400634B1B6813F4003FB7D000F0DFFA401B6B
:100F64006428F5D9032042E15D4B5B6813F4800FDC
:100F7400BAD15B4B1B6813F0020F03D0E368012B5B
:100F840040F03281564A136823F0F803216943EA9A
:100F9400C1031360236813F0080F47D06369002B63
:100FA40032D0514B01221A6000F0B8FA05464C4B7E
:100FB4005B6F13F0020F39D100F0B0FA401B022826
:100FC400F5D9032013E1464B5B6813F4800F91D1EC
:100FD400CFE7434A136823F0F803216943EAC103C6
:100FE4001360D7E73F4B00221A6000F097FA0546DA
:100FF4003B4B1B6813F0020FCCD000F08FFA401B60
:101004000228F5D90320F2E0374B00221A6000F0E1
:1010140085FA0546324B5B6F13F0020F06D000F0E1
:101024007DFA401B0228F5D90320E0E0236813F081
:10103400040F79D02A4B1B6C13F0805F0DD1002371
:101044000193274B1A6C42F080521A641B6C03F014
:1010540080530193019B012500E00025234B1B686D
:1010640013F4807F21D0A368012B32D0052B3FD00D
:101074001B4B1A6F22F001021A671A6F22F0040246
:101084001A67A368002B3DD000F048FA0646144BBB
:101094001B6F13F0020F46D100F040FA801B41F29F
:1010A40088339842F3D90320A1E0104A136843F42B
:1010B4008073136000F032FA06460C4B1B6813F47D
:1010C400807FD0D100F02AFA801B0228F5D90320B2
:1010D4008DE0034A136F43F001031367D1E700BFA8
:1010E4000038024000004742800E47420070004032
:1010F400414B1A6F42F004021A671A6F42F0010260
:101104001A67BEE700F00AFA06463B4B1B6F13F062
:10111400020F08D000F002FA801B41F28833984293
:10112400F3D9032063E0E5B9A369002B5ED0324A0A
:10113400926802F00C02082A5BD0022B17D02F4BC6
:1011440000221A6000F0EAF904462B4B1B6813F0E6
:10115400007F45D000F0E2F9001B0228F5D90320F6
:1011640045E0254A136C23F080531364DCE7234BDA
:1011740000221A6000F0D2F905461F4B1B6813F0D9
:10118400007F06D000F0CAF9401B0228F5D90320DD
:101194002DE0E369226A1343626A43EA8213A26A76
:1011A4005208013A43EA0243E26A43EA0263226BC9
:1011B40043EA0273104A5360104B01221A6000F094
:1011C400ADF904460C4B1B6813F0007F06D100F008
:1011D400A5F9001B0228F5D9032008E0002006E049
:1011E400002004E0012002E0012000E0002002B021
:1011F40070BD0120FBE700BF003802406000474299
:1012040000230F2B00F2D380F0B583B039E006221F
:1012140000E00022B2403A430234654E46F82420EE
:10122400644A1468EA4324EA05064F6817F4803FC9
:1012340001D045EA04065F4C2660646802EA0406AD
:101244004F6817F4003F01D045EA0406594C666024
:10125400A46802EA04064F6817F4801F01D045EA27
:101264000406544CA660E46822404E6816F4001F3D
:1012740001D045EA04024F4CE26001330F2B00F227
:10128400948001229A400C6804EA020532EA0404BC
:10129400F3D14C68661E012E03D9112C01D0122CF7
:1012A40012D186685F000324BC4026EA0406CC6899
:1012B400BC4034438460466826EA02064C68C4F3A2
:1012C40000129A4032434260C7685E000324B4406F
:1012D400E24327EA04078C68B4403C43C4604C688A
:1012E400022C01D0122C13D1DF08083750F827E064
:1012F40003F007044FEA840C0F2404FA0CF42EEADA
:10130400040E0C6904FA0CF444EA0E0440F8274075
:10131400046814404A6802F00302B24022430260A7
:101324004A6812F0805FA8D000220192224A546CCD
:1013340044F480445464526C02F480420192019A51
:101344009C08A61C1A4A52F8267003F00302960061
:101354000F22B24027EA0207184A90423FF459AFDD
:1013640002F58062904216D002F58062904214D059
:1013740002F58062904212D002F58062904210D051
:1013840002F5806290420ED002F5806290423FF4F2
:101394003EAF07223EE701223CE702223AE703225E
:1013A40038E7042236E7052234E703B0F0BD70477E
:1013B40000380140003C0140003802400000024077
:1013C4000AB181617047090481617047074AD36893
:1013D40023F4E0631B041B0C000200F4E0600343ED
:1013E40043F0BF6343F40033D360704700ED00E083
:1013F40030B4174BDB68C3F30223C3F10704042C96
:1014040028BF04241D1D062D18D9033B4FF0FF35BA
:1014140005FA04F421EA0401994005FA03F322EAE7
:101424000303194300280BDB0901C9B200F1604032
:1014340000F5614080F8001330BC70470023E5E7F5
:1014440000F00F000901C9B2024B1954F4E700BFC0
:1014540000ED00E014ED00E00138B0F1807F0AD225
:10146400064B5860064AF02182F823100020986049
:1014740007221A6070470120704700BF10E000E0A7
:1014840000ED00E010B504460E4B18784FF47A7363
:10149400B3FBF0F30C4A1068B0FBF3F0FFF7DCFF8A
:1014A40068B90F2C01D901200AE0002221464FF02F
:1014B400FF30FFF79DFF054B1C60002000E001207A
:1014C40010BD00BF00000020080000200400002020
:1014D40008B50B4B1A6842F400721A601A6842F499
:1014E40080621A601A6842F480721A600320FFF75F
:1014F4006DFF0020FFF7C6FFFFF7ECF8002008BDE2
:10150400003C0240034A1168034B1B780B441360F0
:10151400704700BF6800002000000020014B1868DD
:10152400704700BF6800002038B50446FFF7F6FF97
:101534000546B4F1FF3F02D0044B1B781C44FFF76F
:10154400EDFF401BA042FAD338BD00BF00000020CD
:10155400054BD3F8882042F47002C3F888204FF07A
:1015640000629A60704700BF00ED00E0DFF834D0FD
:10157400002103E00C4B5B58435004310B480C4BE7
:1015840042189A42F6D30B4A02E0002342F8043B85
:10159400094B9A42F9D3FFF7DBFF00F011F8FFF78C
:1015A4006FF8704700000220681600080000002051
:1015B4000C0000200C0000206C000020FEE700005E
:1015C40070B50D4D0D4C641BA4100026A64209D124
:1015D4000B4D0C4C00F020F8641BA4100026A6420E
:1015E40005D170BD55F8043B98470136EEE755F830
:1015F400043B98470136F2E76016000860160008BD
:10160400601600086416000802440346934200D1A1
:10161400704703F8011BF9E7F8B500BFF8BC08BC34
:101624009E467047F8B500BFF8BC08BC9E4670479C
:101634004B616C697374610D0A00000000000000C6
:10164400000000000102030406070809000000006E
:041654000102030488
:08165800DCEBFF7F0100000044
:04166000E901000894
:04166400C5010008B4
:0C16680001000000100000000024F4004D
:040000050800157169
:00000001FF
